:1000000075817F7500007501007502007508007527
:1000100009007510001166114F20A40CD2D3C2D470
:100020001166114F11340132C2D3C2D41166114F7F
:100030001147011930A0FD20A0FDE59D28500201C7
:1000400042081166114F221166114F11830822C216
:10005000A3EA115AE9115AD2A3227B08A2E792A17E
:10006000119023DBF722E875F00A841174F9E5F0AA
:100070001174FA2290007993227E306D79335B5FA0
:10008000707F737CFF7EFF7DFFDDFEDEFEDCF822ED
:05009000D2A2C2A22271
:00000001FF
