:100000007581807500007501007502007508007526
:1000100009007510001170115920A40AD2D3117073
:100020001159112C012AC2D31147011920A41730EC
:10003000A0FA20A41120A0FAE8249D500478000121
:100040004208117011592211701159E824C5400459
:10005000080200567800119622C2A3EA1164E91141
:1000600064D2A3227B08A2E792A1119D23DBF72291
:10007000E875F00A84117EF9E5F0117EFA2290000D
:100080008393227E306D79335B5F707F737CC87D94
:10009000F9DDFEDCFA227E0A118DDEFC22D2A2C23C
:0200A000A2229A
:00000001FF
